{
  "_format": "hh-sol-artifact-1",
  "contractName": "NFTMarketplace",
  "sourceName": "contracts/NTFMarketplace.sol",
  "abi": [
    {
      "inputs": [],
      "stateMutability": "nonpayable",
      "type": "constructor"
    },
    {
      "anonymous": false,
      "inputs": [
        {
          "indexed": true,
          "internalType": "address",
          "name": "owner",
          "type": "address"
        },
        {
          "indexed": true,
          "internalType": "address",
          "name": "approved",
          "type": "address"
        },
        {
          "indexed": true,
          "internalType": "uint256",
          "name": "tokenId",
          "type": "uint256"
        }
      ],
      "name": "Approval",
      "type": "event"
    },
    {
      "anonymous": false,
      "inputs": [
        {
          "indexed": true,
          "internalType": "address",
          "name": "owner",
          "type": "address"
        },
        {
          "indexed": true,
          "internalType": "address",
          "name": "operator",
          "type": "address"
        },
        {
          "indexed": false,
          "internalType": "bool",
          "name": "approved",
          "type": "bool"
        }
      ],
      "name": "ApprovalForAll",
      "type": "event"
    },
    {
      "anonymous": false,
      "inputs": [
        {
          "indexed": true,
          "internalType": "address",
          "name": "from",
          "type": "address"
        },
        {
          "indexed": true,
          "internalType": "address",
          "name": "to",
          "type": "address"
        },
        {
          "indexed": true,
          "internalType": "uint256",
          "name": "tokenId",
          "type": "uint256"
        }
      ],
      "name": "Transfer",
      "type": "event"
    },
    {
      "anonymous": false,
      "inputs": [
        {
          "indexed": true,
          "internalType": "uint256",
          "name": "tokenId",
          "type": "uint256"
        },
        {
          "indexed": false,
          "internalType": "address",
          "name": "seller",
          "type": "address"
        },
        {
          "indexed": false,
          "internalType": "address",
          "name": "owner",
          "type": "address"
        },
        {
          "indexed": false,
          "internalType": "uint256",
          "name": "price",
          "type": "uint256"
        },
        {
          "indexed": false,
          "internalType": "bool",
          "name": "sold",
          "type": "bool"
        }
      ],
      "name": "idMarketItemCreated",
      "type": "event"
    },
    {
      "inputs": [
        {
          "internalType": "uint256",
          "name": "tokenId",
          "type": "uint256"
        },
        {
          "internalType": "uint256",
          "name": "price",
          "type": "uint256"
        }
      ],
      "name": "ReSellToken",
      "outputs": [],
      "stateMutability": "payable",
      "type": "function"
    },
    {
      "inputs": [
        {
          "internalType": "address",
          "name": "to",
          "type": "address"
        },
        {
          "internalType": "uint256",
          "name": "tokenId",
          "type": "uint256"
        }
      ],
      "name": "approve",
      "outputs": [],
      "stateMutability": "nonpayable",
      "type": "function"
    },
    {
      "inputs": [
        {
          "internalType": "address",
          "name": "owner",
          "type": "address"
        }
      ],
      "name": "balanceOf",
      "outputs": [
        {
          "internalType": "uint256",
          "name": "",
          "type": "uint256"
        }
      ],
      "stateMutability": "view",
      "type": "function"
    },
    {
      "inputs": [
        {
          "internalType": "uint256",
          "name": "tokenId",
          "type": "uint256"
        }
      ],
      "name": "createMarketSale",
      "outputs": [],
      "stateMutability": "payable",
      "type": "function"
    },
    {
      "inputs": [
        {
          "internalType": "string",
          "name": "tokenURI",
          "type": "string"
        },
        {
          "internalType": "uint256",
          "name": "price",
          "type": "uint256"
        }
      ],
      "name": "createToken",
      "outputs": [
        {
          "internalType": "uint256",
          "name": "",
          "type": "uint256"
        }
      ],
      "stateMutability": "payable",
      "type": "function"
    },
    {
      "inputs": [],
      "name": "fetchItemListed",
      "outputs": [
        {
          "components": [
            {
              "internalType": "uint256",
              "name": "tokenId",
              "type": "uint256"
            },
            {
              "internalType": "address payable",
              "name": "seller",
              "type": "address"
            },
            {
              "internalType": "address payable",
              "name": "owner",
              "type": "address"
            },
            {
              "internalType": "uint256",
              "name": "price",
              "type": "uint256"
            },
            {
              "internalType": "bool",
              "name": "sold",
              "type": "bool"
            }
          ],
          "internalType": "struct NFTMarketplace.MarketItem[]",
          "name": "",
          "type": "tuple[]"
        }
      ],
      "stateMutability": "view",
      "type": "function"
    },
    {
      "inputs": [],
      "name": "fetchMarketItem",
      "outputs": [
        {
          "components": [
            {
              "internalType": "uint256",
              "name": "tokenId",
              "type": "uint256"
            },
            {
              "internalType": "address payable",
              "name": "seller",
              "type": "address"
            },
            {
              "internalType": "address payable",
              "name": "owner",
              "type": "address"
            },
            {
              "internalType": "uint256",
              "name": "price",
              "type": "uint256"
            },
            {
              "internalType": "bool",
              "name": "sold",
              "type": "bool"
            }
          ],
          "internalType": "struct NFTMarketplace.MarketItem[]",
          "name": "",
          "type": "tuple[]"
        }
      ],
      "stateMutability": "view",
      "type": "function"
    },
    {
      "inputs": [],
      "name": "fetchMyNFT",
      "outputs": [
        {
          "components": [
            {
              "internalType": "uint256",
              "name": "tokenId",
              "type": "uint256"
            },
            {
              "internalType": "address payable",
              "name": "seller",
              "type": "address"
            },
            {
              "internalType": "address payable",
              "name": "owner",
              "type": "address"
            },
            {
              "internalType": "uint256",
              "name": "price",
              "type": "uint256"
            },
            {
              "internalType": "bool",
              "name": "sold",
              "type": "bool"
            }
          ],
          "internalType": "struct NFTMarketplace.MarketItem[]",
          "name": "",
          "type": "tuple[]"
        }
      ],
      "stateMutability": "view",
      "type": "function"
    },
    {
      "inputs": [
        {
          "internalType": "uint256",
          "name": "tokenId",
          "type": "uint256"
        }
      ],
      "name": "getApproved",
      "outputs": [
        {
          "internalType": "address",
          "name": "",
          "type": "address"
        }
      ],
      "stateMutability": "view",
      "type": "function"
    },
    {
      "inputs": [],
      "name": "getListingPrice",
      "outputs": [
        {
          "internalType": "uint256",
          "name": "",
          "type": "uint256"
        }
      ],
      "stateMutability": "view",
      "type": "function"
    },
    {
      "inputs": [
        {
          "internalType": "address",
          "name": "owner",
          "type": "address"
        },
        {
          "internalType": "address",
          "name": "operator",
          "type": "address"
        }
      ],
      "name": "isApprovedForAll",
      "outputs": [
        {
          "internalType": "bool",
          "name": "",
          "type": "bool"
        }
      ],
      "stateMutability": "view",
      "type": "function"
    },
    {
      "inputs": [],
      "name": "name",
      "outputs": [
        {
          "internalType": "string",
          "name": "",
          "type": "string"
        }
      ],
      "stateMutability": "view",
      "type": "function"
    },
    {
      "inputs": [
        {
          "internalType": "uint256",
          "name": "tokenId",
          "type": "uint256"
        }
      ],
      "name": "ownerOf",
      "outputs": [
        {
          "internalType": "address",
          "name": "",
          "type": "address"
        }
      ],
      "stateMutability": "view",
      "type": "function"
    },
    {
      "inputs": [
        {
          "internalType": "address",
          "name": "from",
          "type": "address"
        },
        {
          "internalType": "address",
          "name": "to",
          "type": "address"
        },
        {
          "internalType": "uint256",
          "name": "tokenId",
          "type": "uint256"
        }
      ],
      "name": "safeTransferFrom",
      "outputs": [],
      "stateMutability": "nonpayable",
      "type": "function"
    },
    {
      "inputs": [
        {
          "internalType": "address",
          "name": "from",
          "type": "address"
        },
        {
          "internalType": "address",
          "name": "to",
          "type": "address"
        },
        {
          "internalType": "uint256",
          "name": "tokenId",
          "type": "uint256"
        },
        {
          "internalType": "bytes",
          "name": "data",
          "type": "bytes"
        }
      ],
      "name": "safeTransferFrom",
      "outputs": [],
      "stateMutability": "nonpayable",
      "type": "function"
    },
    {
      "inputs": [
        {
          "internalType": "address",
          "name": "operator",
          "type": "address"
        },
        {
          "internalType": "bool",
          "name": "approved",
          "type": "bool"
        }
      ],
      "name": "setApprovalForAll",
      "outputs": [],
      "stateMutability": "nonpayable",
      "type": "function"
    },
    {
      "inputs": [
        {
          "internalType": "bytes4",
          "name": "interfaceId",
          "type": "bytes4"
        }
      ],
      "name": "supportsInterface",
      "outputs": [
        {
          "internalType": "bool",
          "name": "",
          "type": "bool"
        }
      ],
      "stateMutability": "view",
      "type": "function"
    },
    {
      "inputs": [],
      "name": "symbol",
      "outputs": [
        {
          "internalType": "string",
          "name": "",
          "type": "string"
        }
      ],
      "stateMutability": "view",
      "type": "function"
    },
    {
      "inputs": [
        {
          "internalType": "uint256",
          "name": "tokenId",
          "type": "uint256"
        }
      ],
      "name": "tokenURI",
      "outputs": [
        {
          "internalType": "string",
          "name": "",
          "type": "string"
        }
      ],
      "stateMutability": "view",
      "type": "function"
    },
    {
      "inputs": [
        {
          "internalType": "address",
          "name": "from",
          "type": "address"
        },
        {
          "internalType": "address",
          "name": "to",
          "type": "address"
        },
        {
          "internalType": "uint256",
          "name": "tokenId",
          "type": "uint256"
        }
      ],
      "name": "transferFrom",
      "outputs": [],
      "stateMutability": "nonpayable",
      "type": "function"
    },
    {
      "inputs": [
        {
          "internalType": "uint256",
          "name": "_ListingPrice",
          "type": "uint256"
        }
      ],
      "name": "updateListingPrice",
      "outputs": [],
      "stateMutability": "payable",
      "type": "function"
    }
  ],
  "bytecode": "0x60806040526605543df729c0006009553480156200001c57600080fd5b506040518060400160405280600d81526020017f4e4654204d6574617661727365000000000000000000000000000000000000008152506040518060400160405280600581526020017f4d594e465400000000000000000000000000000000000000000000000000000081525081600090816200009a919062000355565b508060019081620000ac919062000355565b5050503373ffffffffffffffffffffffffffffffffffffffff16600a60009054906101000a905050506200043c565b600081519050919050565b7f4e487b7100000000000000000000000000000000000000000000000000000000600052604160045260246000fd5b7f4e487b7100000000000000000000000000000000000000000000000000000000600052602260045260246000fd5b600060028204905060018216806200015d57607f821691505b60208210810362000173576200017262000115565b5b50919050565b60008190508160005260206000209050919050565b60006020601f8301049050919050565b600082821b905092915050565b600060088302620001dd7fffffffffffffffffffffffffffffffffffffffffffffffffffffffffffffffff826200019e565b620001e986836200019e565b95508019841693508086168417925050509392505050565b6000819050919050565b6000819050919050565b600062000236620002306200022a8462000201565b6200020b565b62000201565b9050919050565b6000819050919050565b620002528362000215565b6200026a62000261826200023d565b848454620001ab565b825550505050565b600090565b6200028162000272565b6200028e81848462000247565b505050565b5b81811015620002b657620002aa60008262000277565b60018101905062000294565b5050565b601f8211156200030557620002cf8162000179565b620002da846200018e565b81016020851015620002ea578190505b62000302620002f9856200018e565b83018262000293565b50505b505050565b600082821c905092915050565b60006200032a600019846008026200030a565b1980831691505092915050565b600062000345838362000317565b9150826002028217905092915050565b6200036082620000db565b67ffffffffffffffff8111156200037c576200037b620000e6565b5b62000388825462000144565b62000395828285620002ba565b600060209050601f831160018114620003cd5760008415620003b8578287015190505b620003c4858262000337565b86555062000434565b601f198416620003dd8662000179565b60005b828110156200040757848901518255600182019150602085019450602081019050620003e0565b8683101562000427578489015162000423601f89168262000317565b8355505b6001600288020188555050505b505050505050565b614416806200044c6000396000f3fe60806040526004361061012a5760003560e01c806372b3b620116100ab578063b88d4fde1161006f578063b88d4fde146103db578063be9af53614610404578063c18763f714610420578063c87b56dd1461044b578063e179144514610488578063e985e9c5146104b35761012a565b806372b3b620146103105780638fafd0211461034057806395d89b411461036b578063a22cb46514610396578063ae677aa3146103bf5761012a565b806312e85585116100f257806312e855851461021957806323b872dd1461024457806342842e0e1461026d5780636352211e1461029657806370a08231146102d35761012a565b806301ffc9a71461012f57806306fdde031461016c578063081812fc14610197578063095ea7b3146101d45780630df57bf8146101fd575b600080fd5b34801561013b57600080fd5b5061015660048036038101906101519190612c39565b6104f0565b6040516101639190612c81565b60405180910390f35b34801561017857600080fd5b506101816105d2565b60405161018e9190612d2c565b60405180910390f35b3480156101a357600080fd5b506101be60048036038101906101b99190612d84565b610664565b6040516101cb9190612df2565b60405180910390f35b3480156101e057600080fd5b506101fb60048036038101906101f69190612e39565b6106aa565b005b61021760048036038101906102129190612e79565b6107c1565b005b34801561022557600080fd5b5061022e6109b6565b60405161023b9190612ec8565b60405180910390f35b34801561025057600080fd5b5061026b60048036038101906102669190612ee3565b6109c0565b005b34801561027957600080fd5b50610294600480360381019061028f9190612ee3565b610a20565b005b3480156102a257600080fd5b506102bd60048036038101906102b89190612d84565b610a40565b6040516102ca9190612df2565b60405180910390f35b3480156102df57600080fd5b506102fa60048036038101906102f59190612f36565b610ac6565b6040516103079190612ec8565b60405180910390f35b61032a60048036038101906103259190613098565b610b7d565b6040516103379190612ec8565b60405180910390f35b34801561034c57600080fd5b50610355610bbf565b604051610362919061324a565b60405180910390f35b34801561037757600080fd5b50610380610e27565b60405161038d9190612d2c565b60405180910390f35b3480156103a257600080fd5b506103bd60048036038101906103b89190613298565b610eb9565b005b6103d960048036038101906103d49190612d84565b610ecf565b005b3480156103e757600080fd5b5061040260048036038101906103fd9190613379565b610f69565b005b61041e60048036038101906104199190612d84565b610fcb565b005b34801561042c57600080fd5b50610435611203565b604051610442919061324a565b60405180910390f35b34801561045757600080fd5b50610472600480360381019061046d9190612d84565b6114ef565b60405161047f9190612d2c565b60405180910390f35b34801561049457600080fd5b5061049d611601565b6040516104aa919061324a565b60405180910390f35b3480156104bf57600080fd5b506104da60048036038101906104d591906133fc565b6118ed565b6040516104e79190612c81565b60405180910390f35b60007f80ac58cd000000000000000000000000000000000000000000000000000000007bffffffffffffffffffffffffffffffffffffffffffffffffffffffff1916827bffffffffffffffffffffffffffffffffffffffffffffffffffffffff191614806105bb57507f5b5e139f000000000000000000000000000000000000000000000000000000007bffffffffffffffffffffffffffffffffffffffffffffffffffffffff1916827bffffffffffffffffffffffffffffffffffffffffffffffffffffffff1916145b806105cb57506105ca82611981565b5b9050919050565b6060600080546105e19061346b565b80601f016020809104026020016040519081016040528092919081815260200182805461060d9061346b565b801561065a5780601f1061062f5761010080835404028352916020019161065a565b820191906000526020600020905b81548152906001019060200180831161063d57829003601f168201915b5050505050905090565b600061066f826119eb565b6004600083815260200190815260200160002060009054906101000a900473ffffffffffffffffffffffffffffffffffffffff169050919050565b60006106b582610a40565b90508073ffffffffffffffffffffffffffffffffffffffff168373ffffffffffffffffffffffffffffffffffffffff1603610725576040517f08c379a000000000000000000000000000000000000000000000000000000000815260040161071c9061350e565b60405180910390fd5b8073ffffffffffffffffffffffffffffffffffffffff16610744611a36565b73ffffffffffffffffffffffffffffffffffffffff16148061077357506107728161076d611a36565b6118ed565b5b6107b2576040517f08c379a00000000000000000000000000000000000000000000000000000000081526004016107a9906135a0565b60405180910390fd5b6107bc8383611a3e565b505050565b3373ffffffffffffffffffffffffffffffffffffffff16600b600084815260200190815260200160002060020160009054906101000a900473ffffffffffffffffffffffffffffffffffffffff1673ffffffffffffffffffffffffffffffffffffffff1614610865576040517f08c379a000000000000000000000000000000000000000000000000000000000815260040161085c90613632565b60405180910390fd5b60095434146108a9576040517f08c379a00000000000000000000000000000000000000000000000000000000081526004016108a0906136c4565b60405180910390fd5b6000600b600084815260200190815260200160002060040160006101000a81548160ff02191690831515021790555080600b60008481526020019081526020016000206003018190555033600b600084815260200190815260200160002060010160006101000a81548173ffffffffffffffffffffffffffffffffffffffff021916908373ffffffffffffffffffffffffffffffffffffffff16021790555030600b600084815260200190815260200160002060020160006101000a81548173ffffffffffffffffffffffffffffffffffffffff021916908373ffffffffffffffffffffffffffffffffffffffff1602179055506109a76008611af7565b6109b2333084611b53565b5050565b6000600954905090565b6109d16109cb611a36565b82611e4c565b610a10576040517f08c379a0000000000000000000000000000000000000000000000000000000008152600401610a0790613756565b60405180910390fd5b610a1b838383611b53565b505050565b610a3b83838360405180602001604052806000815250610f69565b505050565b600080610a4c83611ee1565b9050600073ffffffffffffffffffffffffffffffffffffffff168173ffffffffffffffffffffffffffffffffffffffff1603610abd576040517f08c379a0000000000000000000000000000000000000000000000000000000008152600401610ab4906137c2565b60405180910390fd5b80915050919050565b60008073ffffffffffffffffffffffffffffffffffffffff168273ffffffffffffffffffffffffffffffffffffffff1603610b36576040517f08c379a0000000000000000000000000000000000000000000000000000000008152600401610b2d90613854565b60405180910390fd5b600360008373ffffffffffffffffffffffffffffffffffffffff1673ffffffffffffffffffffffffffffffffffffffff168152602001908152602001600020549050919050565b6000610b896007611f1e565b6000610b956007611f34565b9050610ba13382611f42565b610bab818561215f565b610bb581846121cc565b8091505092915050565b60606000610bcd6007611f34565b90506000610bdb6008611f34565b610be56007611f34565b610bef91906138a3565b90506000808267ffffffffffffffff811115610c0e57610c0d612f6d565b5b604051908082528060200260200182016040528015610c4757816020015b610c34612b70565b815260200190600190039081610c2c5790505b50905060005b84811015610e1c573073ffffffffffffffffffffffffffffffffffffffff16600b6000600184610c7d91906138d7565b815260200190815260200160002060020160009054906101000a900473ffffffffffffffffffffffffffffffffffffffff1673ffffffffffffffffffffffffffffffffffffffff1603610e09576000600182610cd991906138d7565b90506000600b60008381526020019081526020016000209050806040518060a0016040529081600082015481526020016001820160009054906101000a900473ffffffffffffffffffffffffffffffffffffffff1673ffffffffffffffffffffffffffffffffffffffff1673ffffffffffffffffffffffffffffffffffffffff1681526020016002820160009054906101000a900473ffffffffffffffffffffffffffffffffffffffff1673ffffffffffffffffffffffffffffffffffffffff1673ffffffffffffffffffffffffffffffffffffffff168152602001600382015481526020016004820160009054906101000a900460ff161515151581525050848681518110610dec57610deb61390b565b5b6020026020010181905250600185610e0491906138d7565b945050505b8080610e149061393a565b915050610c4d565b508094505050505090565b606060018054610e369061346b565b80601f0160208091040260200160405190810160405280929190818152602001828054610e629061346b565b8015610eaf5780601f10610e8457610100808354040283529160200191610eaf565b820191906000526020600020905b815481529060010190602001808311610e9257829003601f168201915b5050505050905090565b610ecb610ec4611a36565b83836123f1565b5050565b600a60009054906101000a900473ffffffffffffffffffffffffffffffffffffffff1673ffffffffffffffffffffffffffffffffffffffff163373ffffffffffffffffffffffffffffffffffffffff1614610f5f576040517f08c379a0000000000000000000000000000000000000000000000000000000008152600401610f56906139f4565b60405180910390fd5b8060098190555050565b610f7a610f74611a36565b83611e4c565b610fb9576040517f08c379a0000000000000000000000000000000000000000000000000000000008152600401610fb090613756565b60405180910390fd5b610fc58484848461255d565b50505050565b6000600b6000838152602001908152602001600020600301549050803414611028576040517f08c379a000000000000000000000000000000000000000000000000000000000815260040161101f90613aac565b60405180910390fd5b33600b600084815260200190815260200160002060020160006101000a81548173ffffffffffffffffffffffffffffffffffffffff021916908373ffffffffffffffffffffffffffffffffffffffff1602179055506001600b600084815260200190815260200160002060040160006101000a81548160ff0219169083151502179055506000600b600084815260200190815260200160002060020160006101000a81548173ffffffffffffffffffffffffffffffffffffffff021916908373ffffffffffffffffffffffffffffffffffffffff16021790555061110c6008611f1e565b611117303384611b53565b600a60009054906101000a900473ffffffffffffffffffffffffffffffffffffffff1673ffffffffffffffffffffffffffffffffffffffff166108fc6009549081150290604051600060405180830381858888f19350505050158015611181573d6000803e3d6000fd5b50600b600083815260200190815260200160002060010160009054906101000a900473ffffffffffffffffffffffffffffffffffffffff1673ffffffffffffffffffffffffffffffffffffffff166108fc349081150290604051600060405180830381858888f193505050501580156111fe573d6000803e3d6000fd5b505050565b606060006112116007611f34565b905060008060005b838110156112b9573373ffffffffffffffffffffffffffffffffffffffff16600b600060018461124991906138d7565b815260200190815260200160002060020160009054906101000a900473ffffffffffffffffffffffffffffffffffffffff1673ffffffffffffffffffffffffffffffffffffffff16036112a6576001836112a391906138d7565b92505b80806112b19061393a565b915050611219565b5060008267ffffffffffffffff8111156112d6576112d5612f6d565b5b60405190808252806020026020018201604052801561130f57816020015b6112fc612b70565b8152602001906001900390816112f45790505b50905060005b848110156114e4573373ffffffffffffffffffffffffffffffffffffffff16600b600060018461134591906138d7565b815260200190815260200160002060020160009054906101000a900473ffffffffffffffffffffffffffffffffffffffff1673ffffffffffffffffffffffffffffffffffffffff16036114d15760006001826113a191906138d7565b90506000600b60008381526020019081526020016000209050806040518060a0016040529081600082015481526020016001820160009054906101000a900473ffffffffffffffffffffffffffffffffffffffff1673ffffffffffffffffffffffffffffffffffffffff1673ffffffffffffffffffffffffffffffffffffffff1681526020016002820160009054906101000a900473ffffffffffffffffffffffffffffffffffffffff1673ffffffffffffffffffffffffffffffffffffffff1673ffffffffffffffffffffffffffffffffffffffff168152602001600382015481526020016004820160009054906101000a900460ff1615151515815250508486815181106114b4576114b361390b565b5b60200260200101819052506001856114cc91906138d7565b945050505b80806114dc9061393a565b915050611315565b508094505050505090565b60606114fa826119eb565b600060066000848152602001908152602001600020805461151a9061346b565b80601f01602080910402602001604051908101604052809291908181526020018280546115469061346b565b80156115935780601f1061156857610100808354040283529160200191611593565b820191906000526020600020905b81548152906001019060200180831161157657829003601f168201915b5050505050905060006115a46125b9565b905060008151036115b95781925050506115fc565b6000825111156115ee5780826040516020016115d6929190613b08565b604051602081830303815290604052925050506115fc565b6115f7846125d0565b925050505b919050565b6060600061160f6007611f34565b905060008060005b838110156116b7573373ffffffffffffffffffffffffffffffffffffffff16600b600060018461164791906138d7565b815260200190815260200160002060010160009054906101000a900473ffffffffffffffffffffffffffffffffffffffff1673ffffffffffffffffffffffffffffffffffffffff16036116a4576001836116a191906138d7565b92505b80806116af9061393a565b915050611617565b5060008267ffffffffffffffff8111156116d4576116d3612f6d565b5b60405190808252806020026020018201604052801561170d57816020015b6116fa612b70565b8152602001906001900390816116f25790505b50905060005b838110156118e2573373ffffffffffffffffffffffffffffffffffffffff16600b600060018461174391906138d7565b815260200190815260200160002060010160009054906101000a900473ffffffffffffffffffffffffffffffffffffffff1673ffffffffffffffffffffffffffffffffffffffff16036118cf57600060018261179f91906138d7565b90506000600b60008381526020019081526020016000209050806040518060a0016040529081600082015481526020016001820160009054906101000a900473ffffffffffffffffffffffffffffffffffffffff1673ffffffffffffffffffffffffffffffffffffffff1673ffffffffffffffffffffffffffffffffffffffff1681526020016002820160009054906101000a900473ffffffffffffffffffffffffffffffffffffffff1673ffffffffffffffffffffffffffffffffffffffff1673ffffffffffffffffffffffffffffffffffffffff168152602001600382015481526020016004820160009054906101000a900460ff1615151515815250508486815181106118b2576118b161390b565b5b60200260200101819052506001856118ca91906138d7565b945050505b80806118da9061393a565b915050611713565b508094505050505090565b6000600560008473ffffffffffffffffffffffffffffffffffffffff1673ffffffffffffffffffffffffffffffffffffffff16815260200190815260200160002060008373ffffffffffffffffffffffffffffffffffffffff1673ffffffffffffffffffffffffffffffffffffffff16815260200190815260200160002060009054906101000a900460ff16905092915050565b60007f01ffc9a7000000000000000000000000000000000000000000000000000000007bffffffffffffffffffffffffffffffffffffffffffffffffffffffff1916827bffffffffffffffffffffffffffffffffffffffffffffffffffffffff1916149050919050565b6119f481612638565b611a33576040517f08c379a0000000000000000000000000000000000000000000000000000000008152600401611a2a906137c2565b60405180910390fd5b50565b600033905090565b816004600083815260200190815260200160002060006101000a81548173ffffffffffffffffffffffffffffffffffffffff021916908373ffffffffffffffffffffffffffffffffffffffff160217905550808273ffffffffffffffffffffffffffffffffffffffff16611ab183610a40565b73ffffffffffffffffffffffffffffffffffffffff167f8c5be1e5ebec7d5bd14f71427d1e84f3dd0314c0f7b2291e5b200ac8c7c3b92560405160405180910390a45050565b60008160000154905060008111611b43576040517f08c379a0000000000000000000000000000000000000000000000000000000008152600401611b3a90613b78565b60405180910390fd5b6001810382600001819055505050565b8273ffffffffffffffffffffffffffffffffffffffff16611b7382610a40565b73ffffffffffffffffffffffffffffffffffffffff1614611bc9576040517f08c379a0000000000000000000000000000000000000000000000000000000008152600401611bc090613c0a565b60405180910390fd5b600073ffffffffffffffffffffffffffffffffffffffff168273ffffffffffffffffffffffffffffffffffffffff1603611c38576040517f08c379a0000000000000000000000000000000000000000000000000000000008152600401611c2f90613c9c565b60405180910390fd5b611c458383836001612679565b8273ffffffffffffffffffffffffffffffffffffffff16611c6582610a40565b73ffffffffffffffffffffffffffffffffffffffff1614611cbb576040517f08c379a0000000000000000000000000000000000000000000000000000000008152600401611cb290613c0a565b60405180910390fd5b6004600082815260200190815260200160002060006101000a81549073ffffffffffffffffffffffffffffffffffffffff02191690556001600360008573ffffffffffffffffffffffffffffffffffffffff1673ffffffffffffffffffffffffffffffffffffffff168152602001908152602001600020600082825403925050819055506001600360008473ffffffffffffffffffffffffffffffffffffffff1673ffffffffffffffffffffffffffffffffffffffff16815260200190815260200160002060008282540192505081905550816002600083815260200190815260200160002060006101000a81548173ffffffffffffffffffffffffffffffffffffffff021916908373ffffffffffffffffffffffffffffffffffffffff160217905550808273ffffffffffffffffffffffffffffffffffffffff168473ffffffffffffffffffffffffffffffffffffffff167fddf252ad1be2c89b69c2b068fc378daa952ba7f163c4a11628f55a4df523b3ef60405160405180910390a4611e47838383600161279f565b505050565b600080611e5883610a40565b90508073ffffffffffffffffffffffffffffffffffffffff168473ffffffffffffffffffffffffffffffffffffffff161480611e9a5750611e9981856118ed565b5b80611ed857508373ffffffffffffffffffffffffffffffffffffffff16611ec084610664565b73ffffffffffffffffffffffffffffffffffffffff16145b91505092915050565b60006002600083815260200190815260200160002060009054906101000a900473ffffffffffffffffffffffffffffffffffffffff169050919050565b6001816000016000828254019250508190555050565b600081600001549050919050565b600073ffffffffffffffffffffffffffffffffffffffff168273ffffffffffffffffffffffffffffffffffffffff1603611fb1576040517f08c379a0000000000000000000000000000000000000000000000000000000008152600401611fa890613d08565b60405180910390fd5b611fba81612638565b15611ffa576040517f08c379a0000000000000000000000000000000000000000000000000000000008152600401611ff190613d74565b60405180910390fd5b612008600083836001612679565b61201181612638565b15612051576040517f08c379a000000000000000000000000000000000000000000000000000000000815260040161204890613d74565b60405180910390fd5b6001600360008473ffffffffffffffffffffffffffffffffffffffff1673ffffffffffffffffffffffffffffffffffffffff16815260200190815260200160002060008282540192505081905550816002600083815260200190815260200160002060006101000a81548173ffffffffffffffffffffffffffffffffffffffff021916908373ffffffffffffffffffffffffffffffffffffffff160217905550808273ffffffffffffffffffffffffffffffffffffffff16600073ffffffffffffffffffffffffffffffffffffffff167fddf252ad1be2c89b69c2b068fc378daa952ba7f163c4a11628f55a4df523b3ef60405160405180910390a461215b60008383600161279f565b5050565b61216882612638565b6121a7576040517f08c379a000000000000000000000000000000000000000000000000000000000815260040161219e90613e06565b60405180910390fd5b806006600084815260200190815260200160002090816121c79190613fd2565b505050565b6000811161220f576040517f08c379a000000000000000000000000000000000000000000000000000000000815260040161220690614116565b60405180910390fd5b6009543414612253576040517f08c379a000000000000000000000000000000000000000000000000000000000815260040161224a906136c4565b60405180910390fd5b6040518060a001604052808381526020013373ffffffffffffffffffffffffffffffffffffffff1681526020013073ffffffffffffffffffffffffffffffffffffffff16815260200182815260200160001515815250600b60008481526020019081526020016000206000820151816000015560208201518160010160006101000a81548173ffffffffffffffffffffffffffffffffffffffff021916908373ffffffffffffffffffffffffffffffffffffffff16021790555060408201518160020160006101000a81548173ffffffffffffffffffffffffffffffffffffffff021916908373ffffffffffffffffffffffffffffffffffffffff1602179055506060820151816003015560808201518160040160006101000a81548160ff02191690831515021790555090505061238c333084611b53565b817fdebdb32cb5230ab727c9c361b16fdb2015df225c10e6a3e7f60ecd5dc5be451630600a60009054906101000a900473ffffffffffffffffffffffffffffffffffffffff168460006040516123e5949392919061418b565b60405180910390a25050565b8173ffffffffffffffffffffffffffffffffffffffff168373ffffffffffffffffffffffffffffffffffffffff160361245f576040517f08c379a00000000000000000000000000000000000000000000000000000000081526004016124569061421c565b60405180910390fd5b80600560008573ffffffffffffffffffffffffffffffffffffffff1673ffffffffffffffffffffffffffffffffffffffff16815260200190815260200160002060008473ffffffffffffffffffffffffffffffffffffffff1673ffffffffffffffffffffffffffffffffffffffff16815260200190815260200160002060006101000a81548160ff0219169083151502179055508173ffffffffffffffffffffffffffffffffffffffff168373ffffffffffffffffffffffffffffffffffffffff167f17307eab39ab6107e8899845ad3d59bd9653f200f220920489ca2b5937696c31836040516125509190612c81565b60405180910390a3505050565b612568848484611b53565b612574848484846127a5565b6125b3576040517f08c379a00000000000000000000000000000000000000000000000000000000081526004016125aa906142ae565b60405180910390fd5b50505050565b606060405180602001604052806000815250905090565b60606125db826119eb565b60006125e56125b9565b905060008151116126055760405180602001604052806000815250612630565b8061260f8461292c565b604051602001612620929190613b08565b6040516020818303038152906040525b915050919050565b60008073ffffffffffffffffffffffffffffffffffffffff1661265a83611ee1565b73ffffffffffffffffffffffffffffffffffffffff1614159050919050565b600181111561279957600073ffffffffffffffffffffffffffffffffffffffff168473ffffffffffffffffffffffffffffffffffffffff161461270d5780600360008673ffffffffffffffffffffffffffffffffffffffff1673ffffffffffffffffffffffffffffffffffffffff168152602001908152602001600020600082825461270591906138a3565b925050819055505b600073ffffffffffffffffffffffffffffffffffffffff168373ffffffffffffffffffffffffffffffffffffffff16146127985780600360008573ffffffffffffffffffffffffffffffffffffffff1673ffffffffffffffffffffffffffffffffffffffff168152602001908152602001600020600082825461279091906138d7565b925050819055505b5b50505050565b50505050565b60006127c68473ffffffffffffffffffffffffffffffffffffffff166129fa565b1561291f578373ffffffffffffffffffffffffffffffffffffffff1663150b7a026127ef611a36565b8786866040518563ffffffff1660e01b81526004016128119493929190614323565b6020604051808303816000875af192505050801561284d57506040513d601f19601f8201168201806040525081019061284a9190614384565b60015b6128cf573d806000811461287d576040519150601f19603f3d011682016040523d82523d6000602084013e612882565b606091505b5060008151036128c7576040517f08c379a00000000000000000000000000000000000000000000000000000000081526004016128be906142ae565b60405180910390fd5b805181602001fd5b63150b7a0260e01b7bffffffffffffffffffffffffffffffffffffffffffffffffffffffff1916817bffffffffffffffffffffffffffffffffffffffffffffffffffffffff191614915050612924565b600190505b949350505050565b60606000600161293b84612a1d565b01905060008167ffffffffffffffff81111561295a57612959612f6d565b5b6040519080825280601f01601f19166020018201604052801561298c5781602001600182028036833780820191505090505b509050600082602001820190505b6001156129ef578080600190039150507f3031323334353637383961626364656600000000000000000000000000000000600a86061a8153600a85816129e3576129e26143b1565b5b0494506000850361299a575b819350505050919050565b6000808273ffffffffffffffffffffffffffffffffffffffff163b119050919050565b600080600090507a184f03e93ff9f4daa797ed6e38ed64bf6a1f0100000000000000008310612a7b577a184f03e93ff9f4daa797ed6e38ed64bf6a1f0100000000000000008381612a7157612a706143b1565b5b0492506040810190505b6d04ee2d6d415b85acef81000000008310612ab8576d04ee2d6d415b85acef81000000008381612aae57612aad6143b1565b5b0492506020810190505b662386f26fc100008310612ae757662386f26fc100008381612add57612adc6143b1565b5b0492506010810190505b6305f5e1008310612b10576305f5e1008381612b0657612b056143b1565b5b0492506008810190505b6127108310612b35576127108381612b2b57612b2a6143b1565b5b0492506004810190505b60648310612b585760648381612b4e57612b4d6143b1565b5b0492506002810190505b600a8310612b67576001810190505b80915050919050565b6040518060a0016040528060008152602001600073ffffffffffffffffffffffffffffffffffffffff168152602001600073ffffffffffffffffffffffffffffffffffffffff168152602001600081526020016000151581525090565b6000604051905090565b600080fd5b600080fd5b60007fffffffff0000000000000000000000000000000000000000000000000000000082169050919050565b612c1681612be1565b8114612c2157600080fd5b50565b600081359050612c3381612c0d565b92915050565b600060208284031215612c4f57612c4e612bd7565b5b6000612c5d84828501612c24565b91505092915050565b60008115159050919050565b612c7b81612c66565b82525050565b6000602082019050612c966000830184612c72565b92915050565b600081519050919050565b600082825260208201905092915050565b60005b83811015612cd6578082015181840152602081019050612cbb565b60008484015250505050565b6000601f19601f8301169050919050565b6000612cfe82612c9c565b612d088185612ca7565b9350612d18818560208601612cb8565b612d2181612ce2565b840191505092915050565b60006020820190508181036000830152612d468184612cf3565b905092915050565b6000819050919050565b612d6181612d4e565b8114612d6c57600080fd5b50565b600081359050612d7e81612d58565b92915050565b600060208284031215612d9a57612d99612bd7565b5b6000612da884828501612d6f565b91505092915050565b600073ffffffffffffffffffffffffffffffffffffffff82169050919050565b6000612ddc82612db1565b9050919050565b612dec81612dd1565b82525050565b6000602082019050612e076000830184612de3565b92915050565b612e1681612dd1565b8114612e2157600080fd5b50565b600081359050612e3381612e0d565b92915050565b60008060408385031215612e5057612e4f612bd7565b5b6000612e5e85828601612e24565b9250506020612e6f85828601612d6f565b9150509250929050565b60008060408385031215612e9057612e8f612bd7565b5b6000612e9e85828601612d6f565b9250506020612eaf85828601612d6f565b9150509250929050565b612ec281612d4e565b82525050565b6000602082019050612edd6000830184612eb9565b92915050565b600080600060608486031215612efc57612efb612bd7565b5b6000612f0a86828701612e24565b9350506020612f1b86828701612e24565b9250506040612f2c86828701612d6f565b9150509250925092565b600060208284031215612f4c57612f4b612bd7565b5b6000612f5a84828501612e24565b91505092915050565b600080fd5b600080fd5b7f4e487b7100000000000000000000000000000000000000000000000000000000600052604160045260246000fd5b612fa582612ce2565b810181811067ffffffffffffffff82111715612fc457612fc3612f6d565b5b80604052505050565b6000612fd7612bcd565b9050612fe38282612f9c565b919050565b600067ffffffffffffffff82111561300357613002612f6d565b5b61300c82612ce2565b9050602081019050919050565b82818337600083830152505050565b600061303b61303684612fe8565b612fcd565b90508281526020810184848401111561305757613056612f68565b5b613062848285613019565b509392505050565b600082601f83011261307f5761307e612f63565b5b813561308f848260208601613028565b91505092915050565b600080604083850312156130af576130ae612bd7565b5b600083013567ffffffffffffffff8111156130cd576130cc612bdc565b5b6130d98582860161306a565b92505060206130ea85828601612d6f565b9150509250929050565b600081519050919050565b600082825260208201905092915050565b6000819050602082019050919050565b61312981612d4e565b82525050565b600061313a82612db1565b9050919050565b61314a8161312f565b82525050565b61315981612c66565b82525050565b60a0820160008201516131756000850182613120565b5060208201516131886020850182613141565b50604082015161319b6040850182613141565b5060608201516131ae6060850182613120565b5060808201516131c16080850182613150565b50505050565b60006131d3838361315f565b60a08301905092915050565b6000602082019050919050565b60006131f7826130f4565b61320181856130ff565b935061320c83613110565b8060005b8381101561323d57815161322488826131c7565b975061322f836131df565b925050600181019050613210565b5085935050505092915050565b6000602082019050818103600083015261326481846131ec565b905092915050565b61327581612c66565b811461328057600080fd5b50565b6000813590506132928161326c565b92915050565b600080604083850312156132af576132ae612bd7565b5b60006132bd85828601612e24565b92505060206132ce85828601613283565b9150509250929050565b600067ffffffffffffffff8211156132f3576132f2612f6d565b5b6132fc82612ce2565b9050602081019050919050565b600061331c613317846132d8565b612fcd565b90508281526020810184848401111561333857613337612f68565b5b613343848285613019565b509392505050565b600082601f8301126133605761335f612f63565b5b8135613370848260208601613309565b91505092915050565b6000806000806080858703121561339357613392612bd7565b5b60006133a187828801612e24565b94505060206133b287828801612e24565b93505060406133c387828801612d6f565b925050606085013567ffffffffffffffff8111156133e4576133e3612bdc565b5b6133f08782880161334b565b91505092959194509250565b6000806040838503121561341357613412612bd7565b5b600061342185828601612e24565b925050602061343285828601612e24565b9150509250929050565b7f4e487b7100000000000000000000000000000000000000000000000000000000600052602260045260246000fd5b6000600282049050600182168061348357607f821691505b6020821081036134965761349561343c565b5b50919050565b7f4552433732313a20617070726f76616c20746f2063757272656e74206f776e6560008201527f7200000000000000000000000000000000000000000000000000000000000000602082015250565b60006134f8602183612ca7565b91506135038261349c565b604082019050919050565b60006020820190508181036000830152613527816134eb565b9050919050565b7f4552433732313a20617070726f76652063616c6c6572206973206e6f7420746f60008201527f6b656e206f776e6572206f7220617070726f76656420666f7220616c6c000000602082015250565b600061358a603d83612ca7565b91506135958261352e565b604082019050919050565b600060208201905081810360008301526135b98161357d565b9050919050565b7f6e7572206465722042657369747a65722064657320546f6b656e73206b616e6e60008201527f2064696573656e20566f7267616e672064757263686665756872656e00000000602082015250565b600061361c603c83612ca7565b9150613627826135c0565b604082019050919050565b6000602082019050818103600083015261364b8161360f565b9050919050565b7f446572207072656973206d75737320676c65696368206d697420646572206c6960008201527f7374696e67205072696365000000000000000000000000000000000000000000602082015250565b60006136ae602b83612ca7565b91506136b982613652565b604082019050919050565b600060208201905081810360008301526136dd816136a1565b9050919050565b7f4552433732313a2063616c6c6572206973206e6f7420746f6b656e206f776e6560008201527f72206f7220617070726f76656400000000000000000000000000000000000000602082015250565b6000613740602d83612ca7565b915061374b826136e4565b604082019050919050565b6000602082019050818103600083015261376f81613733565b9050919050565b7f4552433732313a20696e76616c696420746f6b656e2049440000000000000000600082015250565b60006137ac601883612ca7565b91506137b782613776565b602082019050919050565b600060208201905081810360008301526137db8161379f565b9050919050565b7f4552433732313a2061646472657373207a65726f206973206e6f74206120766160008201527f6c6964206f776e65720000000000000000000000000000000000000000000000602082015250565b600061383e602983612ca7565b9150613849826137e2565b604082019050919050565b6000602082019050818103600083015261386d81613831565b9050919050565b7f4e487b7100000000000000000000000000000000000000000000000000000000600052601160045260246000fd5b60006138ae82612d4e565b91506138b983612d4e565b92508282039050818111156138d1576138d0613874565b5b92915050565b60006138e282612d4e565b91506138ed83612d4e565b925082820190508082111561390557613904613874565b5b92915050565b7f4e487b7100000000000000000000000000000000000000000000000000000000600052603260045260246000fd5b600061394582612d4e565b91507fffffffffffffffffffffffffffffffffffffffffffffffffffffffffffffffff820361397757613976613874565b5b600182019050919050565b7f6e7572206465722042657369747a657220646573204d61726b6574706c61636560008201527f206b616e6e20646965205072656973652061656e646572000000000000000000602082015250565b60006139de603783612ca7565b91506139e982613982565b604082019050919050565b60006020820190508181036000830152613a0d816139d1565b9050919050565b7f426974746520676562656e2053696520646965205072656973766f727374656c60008201527f6c756e6720616e2c2064616d697420646572204b61756620616267657363686c60208201527f6f7373656e2077657264656e206b616e6e2e0000000000000000000000000000604082015250565b6000613a96605283612ca7565b9150613aa182613a14565b606082019050919050565b60006020820190508181036000830152613ac581613a89565b9050919050565b600081905092915050565b6000613ae282612c9c565b613aec8185613acc565b9350613afc818560208601612cb8565b80840191505092915050565b6000613b148285613ad7565b9150613b208284613ad7565b91508190509392505050565b7f436f756e7465723a2064656372656d656e74206f766572666c6f770000000000600082015250565b6000613b62601b83612ca7565b9150613b6d82613b2c565b602082019050919050565b60006020820190508181036000830152613b9181613b55565b9050919050565b7f4552433732313a207472616e736665722066726f6d20696e636f72726563742060008201527f6f776e6572000000000000000000000000000000000000000000000000000000602082015250565b6000613bf4602583612ca7565b9150613bff82613b98565b604082019050919050565b60006020820190508181036000830152613c2381613be7565b9050919050565b7f4552433732313a207472616e7366657220746f20746865207a65726f2061646460008201527f7265737300000000000000000000000000000000000000000000000000000000602082015250565b6000613c86602483612ca7565b9150613c9182613c2a565b604082019050919050565b60006020820190508181036000830152613cb581613c79565b9050919050565b7f4552433732313a206d696e7420746f20746865207a65726f2061646472657373600082015250565b6000613cf2602083612ca7565b9150613cfd82613cbc565b602082019050919050565b60006020820190508181036000830152613d2181613ce5565b9050919050565b7f4552433732313a20746f6b656e20616c7265616479206d696e74656400000000600082015250565b6000613d5e601c83612ca7565b9150613d6982613d28565b602082019050919050565b60006020820190508181036000830152613d8d81613d51565b9050919050565b7f45524337323155524953746f726167653a2055524920736574206f66206e6f6e60008201527f6578697374656e7420746f6b656e000000000000000000000000000000000000602082015250565b6000613df0602e83612ca7565b9150613dfb82613d94565b604082019050919050565b60006020820190508181036000830152613e1f81613de3565b9050919050565b60008190508160005260206000209050919050565b60006020601f8301049050919050565b600082821b905092915050565b600060088302613e887fffffffffffffffffffffffffffffffffffffffffffffffffffffffffffffffff82613e4b565b613e928683613e4b565b95508019841693508086168417925050509392505050565b6000819050919050565b6000613ecf613eca613ec584612d4e565b613eaa565b612d4e565b9050919050565b6000819050919050565b613ee983613eb4565b613efd613ef582613ed6565b848454613e58565b825550505050565b600090565b613f12613f05565b613f1d818484613ee0565b505050565b5b81811015613f4157613f36600082613f0a565b600181019050613f23565b5050565b601f821115613f8657613f5781613e26565b613f6084613e3b565b81016020851015613f6f578190505b613f83613f7b85613e3b565b830182613f22565b50505b505050565b600082821c905092915050565b6000613fa960001984600802613f8b565b1980831691505092915050565b6000613fc28383613f98565b9150826002028217905092915050565b613fdb82612c9c565b67ffffffffffffffff811115613ff457613ff3612f6d565b5b613ffe825461346b565b614009828285613f45565b600060209050601f83116001811461403c576000841561402a578287015190505b6140348582613fb6565b86555061409c565b601f19841661404a86613e26565b60005b828110156140725784890151825560018201915060208501945060208101905061404d565b8683101561408f578489015161408b601f891682613f98565b8355505b6001600288020188555050505b505050505050565b7f446572207072656973206d757373206d696e64656e7374656e7320312073656960008201527f6e00000000000000000000000000000000000000000000000000000000000000602082015250565b6000614100602183612ca7565b915061410b826140a4565b604082019050919050565b6000602082019050818103600083015261412f816140f3565b9050919050565b600061415161414c61414784612db1565b613eaa565b612db1565b9050919050565b600061416382614136565b9050919050565b600061417582614158565b9050919050565b6141858161416a565b82525050565b60006080820190506141a06000830187612de3565b6141ad602083018661417c565b6141ba6040830185612eb9565b6141c76060830184612c72565b95945050505050565b7f4552433732313a20617070726f766520746f2063616c6c657200000000000000600082015250565b6000614206601983612ca7565b9150614211826141d0565b602082019050919050565b60006020820190508181036000830152614235816141f9565b9050919050565b7f4552433732313a207472616e7366657220746f206e6f6e20455243373231526560008201527f63656976657220696d706c656d656e7465720000000000000000000000000000602082015250565b6000614298603283612ca7565b91506142a38261423c565b604082019050919050565b600060208201905081810360008301526142c78161428b565b9050919050565b600081519050919050565b600082825260208201905092915050565b60006142f5826142ce565b6142ff81856142d9565b935061430f818560208601612cb8565b61431881612ce2565b840191505092915050565b60006080820190506143386000830187612de3565b6143456020830186612de3565b6143526040830185612eb9565b818103606083015261436481846142ea565b905095945050505050565b60008151905061437e81612c0d565b92915050565b60006020828403121561439a57614399612bd7565b5b60006143a88482850161436f565b91505092915050565b7f4e487b7100000000000000000000000000000000000000000000000000000000600052601260045260246000fdfea2646970667358221220f42a685f8695d7ce6151488c06651ef476738d4a59f57694b234ea96700b30d864736f6c63430008110033",
  "linkReferences": {},
  "deployedLinkReferences": {}
}